:080000000C9457000C94000061
:100008000C9400000C9400000C9400000C94000068
:100018000C9400000C9400000C9400000C94000058
:100028000C9400000C9400000C9400000C94DA006E
:100038000C9400000C9400000C9400000C94000038
:100048000C9400000C9400000C9491000C94000097
:100058000C94B5000C9400000C9400000C94000063
:100068000C9400000C9400000C9400000C94000008
:100078000C9400001027E80364000A000100001037
:1000880000011000010000000408010201002D4ECB
:10009800414E00494E460000060008008E0001004F
:1000A800130294000000F894EE27EFBBF1E0F5BFCF
:1000B800E5BFF8E1A895A4B7A77FA4BFF0936000B7
:1000C800E09360008DE0A2E0BB27ED938A95E9F705
:1000D80080E094E0A0E0B1E0ED930197E9F7E0EA71
:1000E800F0E085919591009761F0A591B591059003
:1000F8001590BF01F00105900D920197E1F7FB0102
:10010800F0CFE0E0EEBBEABDEBBDEFEFEDBFE4E022
:10011800EEBFC0E0D2E00C940301EA93FA93EFB784
:10012800EA931A930A931091C0000091C600E12F38
:10013800EC7181F4E32D3394F0E0E050FE4F00833E
:10014800E8E0E31509F433245394E8E0E51511F4E5
:100158005524F09A09911991E991EFBFF991E99124
:100168001895AA93EA93FA93EFB7EA93E0911202EB
:10017800E030B1F0E150E0931202E0911102EF5F3C
:10018800E0931102E150F0E0E85FFD4FE081E09379
:10019800C600A0911102A83019F4E0E0E093110222
:1001A800E991EFBFF991E991A99118950A921A92EC
:1001B800FA926A937A938A939A93AA93BA93EA9350
:1001C800FA93EFB7EA93A42DAF5FE2E30E946702C8
:1001D8004E2E442029F45E9B02C05E9801C05E9AB0
:1001E80015D0E991EFBFF991E991B991A991999148
:1001F800899179916991F990199009901895DAD0B7
:1002080078945E9A6624F19AFFCFFFCF6BD07E2E4A
:10021800EFEFE71511F40C947501F19906C0EFE0C2
:10022800E71579F0E71509F00895E62DE030B9F4FF
:1002380099248824A0E099D0A0E08DD0EFE0E715BC
:1002480029F46624F19AAB2D86D00895E3E0E715EA
:1002580014F4F19803C06394A72D8CD042C0E13008
:10026800D1F4E1E07E161CF0E3E0E71514F4F19810
:1002780011C0E72DE13019F463948A2C09C0E230EB
:1002880019F463948D2C04C0E33021F463948C2C0E
:10029800A72D7BD026C0E230D9F4C81441F4EFE092
:1002A800E71511F0F19802C00E944B0210C0A81483
:1002B80049F4E7E0E71514F4F19803C06394A72D17
:1002C8006DD005C0D81419F46394A72D67D009C060
:1002D800E33039F4EFE0E71511F0F19802C00E941D
:1002E8004B0208952497EEEFE883EDEFE983EBEFF7
:1002F800EA83E7EFEB830E946A023FEF10E01430D5
:100308002CF5E12FF0E0DE011496AE0FBF1FEC9143
:10031800E2B987E08A95F1F7E0B1E295EF700E2F28
:100328000F3091F00E3009F400E00D3009F401E0CF
:100338000B3009F402E0073009F403E0E12FEE0F77
:10034800EE0FE00F3E2F02C01F5FD9CFE32F0E94B0
:100358006F0228960895AA931A93E981EF701E2FC9
:10036800E5B1E07FE12BE5B922C0AA93E881E8B9BD
:10037800219608950E945202EF73AE2FE12FE29565
:10038800E07FEE0FEE0FEA2B11C00E945202EF7CC5
:10039800AE2FE12FE295E07FEA2B08C0AA931A93CB
:1003A800E981EF701E2FE92DE07FE12B9E2E188149
:1003B80022960895E0E8E0936100E0E0E0936100B0
:1003C800EFE0E1B9EFEFE2B9EFE0E4B9E0E0E5B979
:1003D800EFEFE7B9E0E0E8B9E0E2EBB9E0E5EAB968
:1003E800E0E0E4BDE5BDE6BDE7BDE8BDE093800023
:1003F800EDE0E0938100E0E0E0938500E093840085
:10040800E0938700E0938600E1E0E0938900E6E866
:10041800E0938800E0E0E0938B00E0938A00E093AB
:10042800B600E093B000E093B100E093B200E0932F
:10043800B300E093B400E0936900EDBBE09368007B
:10044800E0936E00E2E0E0936F00E0E0E09370007C
:10045800E093C000E8EDE093C100E6E0E093C2005D
:10046800E0E0E093C500E1E8E093C400E0E0E09359
:10047800C900E0E8E0BFE0E0E0937B00E0937F00A4
:10048800E5B7E068E5BFE5B7E068E5BF089566242D
:10049800A92D0E94B901A82D0C94AF01AA931A9313
:1004A800E981E3701E2FE92D0895002498E0AA0F32
:1004B800001C0E1A10F40E0E01C0A1609A95B9F72F
:1004C800EA2FA02D0895F1DFEA2F08953A932A9391
:1004D8001A930A9308953B812A8119810881089506
:00000001FF
